{
  "_format": "hh-sol-artifact-1",
  "contractName": "Miner",
  "sourceName": "contracts/Miner.sol",
  "abi": [
    {
      "inputs": [
        {
          "internalType": "contract ERC20",
          "name": "_mainToken",
          "type": "address"
        }
      ],
      "stateMutability": "nonpayable",
      "type": "constructor"
    },
    {
      "inputs": [],
      "name": "busd",
      "outputs": [
        {
          "internalType": "contract ERC20",
          "name": "",
          "type": "address"
        }
      ],
      "stateMutability": "view",
      "type": "function"
    },
    {
      "inputs": [],
      "name": "busdBalance",
      "outputs": [
        {
          "internalType": "uint256",
          "name": "",
          "type": "uint256"
        }
      ],
      "stateMutability": "view",
      "type": "function"
    },
    {
      "inputs": [],
      "name": "busdDailyPercentage",
      "outputs": [
        {
          "internalType": "uint256",
          "name": "",
          "type": "uint256"
        }
      ],
      "stateMutability": "view",
      "type": "function"
    },
    {
      "inputs": [],
      "name": "busdMinerRate",
      "outputs": [
        {
          "internalType": "uint256",
          "name": "",
          "type": "uint256"
        }
      ],
      "stateMutability": "view",
      "type": "function"
    },
    {
      "inputs": [
        {
          "internalType": "uint256",
          "name": "amount",
          "type": "uint256"
        }
      ],
      "name": "deposit",
      "outputs": [],
      "stateMutability": "nonpayable",
      "type": "function"
    },
    {
      "inputs": [
        {
          "internalType": "address",
          "name": "_user",
          "type": "address"
        }
      ],
      "name": "getDailyBusdRewards",
      "outputs": [
        {
          "internalType": "uint256",
          "name": "",
          "type": "uint256"
        }
      ],
      "stateMutability": "view",
      "type": "function"
    },
    {
      "inputs": [],
      "name": "isMinerRunning",
      "outputs": [
        {
          "internalType": "bool",
          "name": "",
          "type": "bool"
        }
      ],
      "stateMutability": "view",
      "type": "function"
    },
    {
      "inputs": [
        {
          "internalType": "uint256",
          "name": "amount",
          "type": "uint256"
        }
      ],
      "name": "launch",
      "outputs": [],
      "stateMutability": "nonpayable",
      "type": "function"
    },
    {
      "inputs": [],
      "name": "mainToken",
      "outputs": [
        {
          "internalType": "contract ERC20",
          "name": "",
          "type": "address"
        }
      ],
      "stateMutability": "view",
      "type": "function"
    },
    {
      "inputs": [],
      "name": "mainTokenBalance",
      "outputs": [
        {
          "internalType": "uint256",
          "name": "",
          "type": "uint256"
        }
      ],
      "stateMutability": "view",
      "type": "function"
    },
    {
      "inputs": [],
      "name": "maximumDeposit",
      "outputs": [
        {
          "internalType": "uint256",
          "name": "",
          "type": "uint256"
        }
      ],
      "stateMutability": "view",
      "type": "function"
    },
    {
      "inputs": [],
      "name": "mineDuration",
      "outputs": [
        {
          "internalType": "uint256",
          "name": "",
          "type": "uint256"
        }
      ],
      "stateMutability": "view",
      "type": "function"
    },
    {
      "inputs": [],
      "name": "mineTokens",
      "outputs": [],
      "stateMutability": "nonpayable",
      "type": "function"
    },
    {
      "inputs": [],
      "name": "minimumCompoundRequired",
      "outputs": [
        {
          "internalType": "uint256",
          "name": "",
          "type": "uint256"
        }
      ],
      "stateMutability": "view",
      "type": "function"
    },
    {
      "inputs": [],
      "name": "minimumDaysRequired",
      "outputs": [
        {
          "internalType": "uint256",
          "name": "",
          "type": "uint256"
        }
      ],
      "stateMutability": "view",
      "type": "function"
    },
    {
      "inputs": [],
      "name": "minimumDeposit",
      "outputs": [
        {
          "internalType": "uint256",
          "name": "",
          "type": "uint256"
        }
      ],
      "stateMutability": "view",
      "type": "function"
    },
    {
      "inputs": [],
      "name": "owner",
      "outputs": [
        {
          "internalType": "address",
          "name": "",
          "type": "address"
        }
      ],
      "stateMutability": "view",
      "type": "function"
    },
    {
      "inputs": [
        {
          "internalType": "uint256",
          "name": "_busdDailyPercentage",
          "type": "uint256"
        }
      ],
      "name": "setBusdDailyPercentage",
      "outputs": [],
      "stateMutability": "nonpayable",
      "type": "function"
    },
    {
      "inputs": [
        {
          "internalType": "uint256",
          "name": "_min",
          "type": "uint256"
        },
        {
          "internalType": "uint256",
          "name": "_max",
          "type": "uint256"
        }
      ],
      "name": "setDepositRange",
      "outputs": [],
      "stateMutability": "nonpayable",
      "type": "function"
    },
    {
      "inputs": [
        {
          "internalType": "contract ERC20",
          "name": "_newMainToken",
          "type": "address"
        }
      ],
      "name": "setMainToken",
      "outputs": [],
      "stateMutability": "nonpayable",
      "type": "function"
    },
    {
      "inputs": [
        {
          "internalType": "uint256",
          "name": "_mineDuration",
          "type": "uint256"
        }
      ],
      "name": "setMinerDuration",
      "outputs": [],
      "stateMutability": "nonpayable",
      "type": "function"
    },
    {
      "inputs": [
        {
          "internalType": "uint256",
          "name": "_minimumCompoundRequired",
          "type": "uint256"
        },
        {
          "internalType": "uint256",
          "name": "_minimumDaysRequired",
          "type": "uint256"
        }
      ],
      "name": "setMinimumRequirements",
      "outputs": [],
      "stateMutability": "nonpayable",
      "type": "function"
    },
    {
      "inputs": [],
      "name": "totalMiners",
      "outputs": [
        {
          "internalType": "uint256",
          "name": "",
          "type": "uint256"
        }
      ],
      "stateMutability": "view",
      "type": "function"
    },
    {
      "inputs": [
        {
          "internalType": "address",
          "name": "_owner",
          "type": "address"
        }
      ],
      "name": "transferOwnership",
      "outputs": [],
      "stateMutability": "nonpayable",
      "type": "function"
    },
    {
      "inputs": [
        {
          "internalType": "address",
          "name": "",
          "type": "address"
        }
      ],
      "name": "user",
      "outputs": [
        {
          "internalType": "uint256",
          "name": "miners",
          "type": "uint256"
        },
        {
          "internalType": "uint256",
          "name": "totalDeposit",
          "type": "uint256"
        },
        {
          "internalType": "uint256",
          "name": "totalCompounded",
          "type": "uint256"
        },
        {
          "internalType": "uint256",
          "name": "compoundCount",
          "type": "uint256"
        },
        {
          "internalType": "uint256",
          "name": "lastWithdrawTime",
          "type": "uint256"
        },
        {
          "internalType": "uint256",
          "name": "lastCompoundTime",
          "type": "uint256"
        },
        {
          "internalType": "uint256",
          "name": "totalTokensMined",
          "type": "uint256"
        },
        {
          "internalType": "uint256",
          "name": "currentTokensMined",
          "type": "uint256"
        },
        {
          "internalType": "address",
          "name": "referral",
          "type": "address"
        }
      ],
      "stateMutability": "view",
      "type": "function"
    },
    {
      "inputs": [
        {
          "internalType": "uint256",
          "name": "_amount",
          "type": "uint256"
        }
      ],
      "name": "withdraw",
      "outputs": [],
      "stateMutability": "nonpayable",
      "type": "function"
    }
  ],
  "bytecode": "0x60806040527378867bbeef44f2326bf8ddd1941a4439382ef2a7600160006101000a81548173ffffffffffffffffffffffffffffffffffffffff021916908373ffffffffffffffffffffffffffffffffffffffff160217905550600d6005556003600655600780556007600855600a6009556101f4600a5562015180600b556000600c60006101000a81548160ff021916908315150217905550348015620000a657600080fd5b5060405162002884380380620028848339818101604052810190620000cc9190620001d2565b806000806101000a81548173ffffffffffffffffffffffffffffffffffffffff021916908373ffffffffffffffffffffffffffffffffffffffff16021790555033600260006101000a81548173ffffffffffffffffffffffffffffffffffffffff021916908373ffffffffffffffffffffffffffffffffffffffff1602179055505062000204565b600080fd5b600073ffffffffffffffffffffffffffffffffffffffff82169050919050565b6000620001868262000159565b9050919050565b60006200019a8262000179565b9050919050565b620001ac816200018d565b8114620001b857600080fd5b50565b600081519050620001cc81620001a1565b92915050565b600060208284031215620001eb57620001ea62000154565b5b6000620001fb84828501620001bb565b91505092915050565b61267080620002146000396000f3fe608060405234801561001057600080fd5b506004361061018e5760003560e01c806381e7e20e116100de578063b3e15c1311610097578063ba25087811610071578063ba25087814610431578063dc39ca7a1461044f578063e98b40671461046d578063f2fde38b146104895761018e565b8063b3e15c13146103db578063b5f45f1b146103f9578063b6b55f25146104155761018e565b806381e7e20e1461031157806385b12c7c1461034957806387e02568146103655780638da5cb5b14610383578063a5d07e23146103a1578063adbc6b6a146103bf5761018e565b80633fc15f151161014b57806354b302c51161012557806354b302c514610299578063636bfbab146102b75780636b2ab4ae146102d5578063764fe7d1146102f35761018e565b80633fc15f151461024157806352bf7d5f1461025f57806353c50dfc1461027d5761018e565b8063134610211461019357806327ce464e1461019d5780632e1a7d4d146101b9578063334ae49c146101d55780633c90c0f9146102055780633ca5b23414610223575b600080fd5b61019b6104a5565b005b6101b760048036038101906101b29190611d8f565b61062c565b005b6101d360048036038101906101ce9190611df2565b6106ff565b005b6101ef60048036038101906101ea9190611e4b565b610e17565b6040516101fc9190611e87565b60405180910390f35b61020d610efd565b60405161021a9190611e87565b60405180910390f35b61022b610f03565b6040516102389190611f01565b60405180910390f35b610249610f29565b6040516102569190611f01565b60405180910390f35b610267610f4d565b6040516102749190611f37565b60405180910390f35b61029760048036038101906102929190611df2565b610f60565b005b6102a1610ffa565b6040516102ae9190611e87565b60405180910390f35b6102bf611000565b6040516102cc9190611e87565b60405180910390f35b6102dd611006565b6040516102ea9190611e87565b60405180910390f35b6102fb61100c565b6040516103089190611e87565b60405180910390f35b61032b60048036038101906103269190611e4b565b611012565b60405161034099989796959493929190611f61565b60405180910390f35b610363600480360381019061035e9190611df2565b611080565b005b61036d6112d4565b60405161037a9190611e87565b60405180910390f35b61038b611376565b6040516103989190611fee565b60405180910390f35b6103a961139c565b6040516103b69190611e87565b60405180910390f35b6103d960048036038101906103d49190612009565b6113a2565b005b6103e3611444565b6040516103f09190611e87565b60405180910390f35b610413600480360381019061040e9190611df2565b61144a565b005b61042f600480360381019061042a9190611df2565b6114e4565b005b6104396116e8565b6040516104469190611e87565b60405180910390f35b6104576116ee565b6040516104649190611e87565b60405180910390f35b61048760048036038101906104829190612009565b611791565b005b6104a3600480360381019061049e9190611e4b565b611833565b005b60011515600c60009054906101000a900460ff161515146104fb576040517f08c379a00000000000000000000000000000000000000000000000000000000081526004016104f2906120a6565b60405180910390fd5b6000600d60003373ffffffffffffffffffffffffffffffffffffffff1673ffffffffffffffffffffffffffffffffffffffff1681526020019081526020016000206001015411610580576040517f08c379a000000000000000000000000000000000000000000000000000000000815260040161057790612138565b60405180910390fd5b6000600d60003373ffffffffffffffffffffffffffffffffffffffff1673ffffffffffffffffffffffffffffffffffffffff16815260200190815260200160002060050154426105d09190612187565b9050600b54811015610617576040517f08c379a000000000000000000000000000000000000000000000000000000000815260040161060e90612207565b60405180910390fd5b61062033611907565b61062933611a37565b50565b3373ffffffffffffffffffffffffffffffffffffffff16600260009054906101000a900473ffffffffffffffffffffffffffffffffffffffff1673ffffffffffffffffffffffffffffffffffffffff16146106bc576040517f08c379a00000000000000000000000000000000000000000000000000000000081526004016106b390612273565b60405180910390fd5b806000806101000a81548173ffffffffffffffffffffffffffffffffffffffff021916908373ffffffffffffffffffffffffffffffffffffffff16021790555050565b60011515600c60009054906101000a900460ff16151514610755576040517f08c379a000000000000000000000000000000000000000000000000000000000815260040161074c906120a6565b60405180910390fd5b6000600d60003373ffffffffffffffffffffffffffffffffffffffff1673ffffffffffffffffffffffffffffffffffffffff16815260200190815260200160002060010154116107da576040517f08c379a00000000000000000000000000000000000000000000000000000000081526004016107d190612138565b60405180910390fd5b6000600854600d60003373ffffffffffffffffffffffffffffffffffffffff1673ffffffffffffffffffffffffffffffffffffffff16815260200190815260200160002060030154101580156108745750600754600d60003373ffffffffffffffffffffffffffffffffffffffff1673ffffffffffffffffffffffffffffffffffffffff1681526020019081526020016000206003015410155b9050806108b6576040517f08c379a00000000000000000000000000000000000000000000000000000000081526004016108ad906122df565b60405180910390fd5b6000600d60003373ffffffffffffffffffffffffffffffffffffffff1673ffffffffffffffffffffffffffffffffffffffff16815260200190815260200160002060010154600d60003373ffffffffffffffffffffffffffffffffffffffff1673ffffffffffffffffffffffffffffffffffffffff168152602001908152602001600020600201546109489190612187565b90508083111561098d576040517f08c379a00000000000000000000000000000000000000000000000000000000081526004016109849061234b565b60405180910390fd5b600160009054906101000a900473ffffffffffffffffffffffffffffffffffffffff1673ffffffffffffffffffffffffffffffffffffffff1663095ea7b330856040518363ffffffff1660e01b81526004016109ea92919061236b565b6020604051808303816000875af1158015610a09573d6000803e3d6000fd5b505050506040513d601f19601f82011682018060405250810190610a2d91906123c0565b50600160009054906101000a900473ffffffffffffffffffffffffffffffffffffffff1673ffffffffffffffffffffffffffffffffffffffff166323b872dd3033866040518463ffffffff1660e01b8152600401610a8d939291906123ed565b6020604051808303816000875af1158015610aac573d6000803e3d6000fd5b505050506040513d601f19601f82011682018060405250810190610ad091906123c0565b5060008054906101000a900473ffffffffffffffffffffffffffffffffffffffff1673ffffffffffffffffffffffffffffffffffffffff1663095ea7b330600d60003373ffffffffffffffffffffffffffffffffffffffff1673ffffffffffffffffffffffffffffffffffffffff168152602001908152602001600020600701546040518363ffffffff1660e01b8152600401610b6e92919061236b565b6020604051808303816000875af1158015610b8d573d6000803e3d6000fd5b505050506040513d601f19601f82011682018060405250810190610bb191906123c0565b5060008054906101000a900473ffffffffffffffffffffffffffffffffffffffff1673ffffffffffffffffffffffffffffffffffffffff166323b872dd3033600d60003373ffffffffffffffffffffffffffffffffffffffff1673ffffffffffffffffffffffffffffffffffffffff168152602001908152602001600020600701546040518463ffffffff1660e01b8152600401610c51939291906123ed565b6020604051808303816000875af1158015610c70573d6000803e3d6000fd5b505050506040513d601f19601f82011682018060405250810190610c9491906123c0565b5082600d60003373ffffffffffffffffffffffffffffffffffffffff1673ffffffffffffffffffffffffffffffffffffffff1681526020019081526020016000206002016000828254610ce79190612187565b925050819055506000600d60003373ffffffffffffffffffffffffffffffffffffffff1673ffffffffffffffffffffffffffffffffffffffff1681526020019081526020016000206003018190555042600d60003373ffffffffffffffffffffffffffffffffffffffff1673ffffffffffffffffffffffffffffffffffffffff168152602001908152602001600020600501819055600d60003373ffffffffffffffffffffffffffffffffffffffff1673ffffffffffffffffffffffffffffffffffffffff168152602001908152602001600020600401819055506000600d60003373ffffffffffffffffffffffffffffffffffffffff1673ffffffffffffffffffffffffffffffffffffffff16815260200190815260200160002060070181905550610e12611bee565b505050565b600080600d60008473ffffffffffffffffffffffffffffffffffffffff1673ffffffffffffffffffffffffffffffffffffffff1681526020019081526020016000206005015442610e689190612187565b9050600b548110610ef25768056bc75e2d63100000600d60008573ffffffffffffffffffffffffffffffffffffffff1673ffffffffffffffffffffffffffffffffffffffff16815260200190815260200160002060020154670de0b6b3a7640000600654610ed69190612424565b610ee09190612424565b610eea9190612495565b915050610ef8565b60009150505b919050565b60045481565b600160009054906101000a900473ffffffffffffffffffffffffffffffffffffffff1681565b60008054906101000a900473ffffffffffffffffffffffffffffffffffffffff1681565b600c60009054906101000a900460ff1681565b3373ffffffffffffffffffffffffffffffffffffffff16600260009054906101000a900473ffffffffffffffffffffffffffffffffffffffff1673ffffffffffffffffffffffffffffffffffffffff1614610ff0576040517f08c379a0000000000000000000000000000000000000000000000000000000008152600401610fe790612273565b60405180910390fd5b8060068190555050565b600a5481565b60095481565b60085481565b60035481565b600d6020528060005260406000206000915090508060000154908060010154908060020154908060030154908060040154908060050154908060060154908060070154908060080160009054906101000a900473ffffffffffffffffffffffffffffffffffffffff16905089565b3373ffffffffffffffffffffffffffffffffffffffff16600260009054906101000a900473ffffffffffffffffffffffffffffffffffffffff1673ffffffffffffffffffffffffffffffffffffffff1614611110576040517f08c379a000000000000000000000000000000000000000000000000000000000815260040161110790612273565b60405180910390fd5b60001515600c60009054906101000a900460ff16151514611166576040517f08c379a000000000000000000000000000000000000000000000000000000000815260040161115d90612512565b60405180910390fd5b600160009054906101000a900473ffffffffffffffffffffffffffffffffffffffff1673ffffffffffffffffffffffffffffffffffffffff166323b872dd3330846040518463ffffffff1660e01b81526004016111c5939291906123ed565b6020604051808303816000875af11580156111e4573d6000803e3d6000fd5b505050506040513d601f19601f8201168201806040525081019061120891906123c0565b50670de0b6b3a764000061121a6116ee565b600a6112269190612424565b6112309190612495565b60038190555061123e6116ee565b670de0b6b3a76400006003546112549190612424565b61125e9190612495565b6004819055506001600c60006101000a81548160ff021916908315150217905550600354600d60003373ffffffffffffffffffffffffffffffffffffffff1673ffffffffffffffffffffffffffffffffffffffff168152602001908152602001600020600001819055506112d181611c1e565b50565b60008060009054906101000a900473ffffffffffffffffffffffffffffffffffffffff1673ffffffffffffffffffffffffffffffffffffffff166370a08231306040518263ffffffff1660e01b81526004016113309190611fee565b602060405180830381865afa15801561134d573d6000803e3d6000fd5b505050506040513d601f19601f820116820180604052508101906113719190612547565b905090565b600260009054906101000a900473ffffffffffffffffffffffffffffffffffffffff1681565b600b5481565b3373ffffffffffffffffffffffffffffffffffffffff16600260009054906101000a900473ffffffffffffffffffffffffffffffffffffffff1673ffffffffffffffffffffffffffffffffffffffff1614611432576040517f08c379a000000000000000000000000000000000000000000000000000000000815260040161142990612273565b60405180910390fd5b81600781905550806008819055505050565b60075481565b3373ffffffffffffffffffffffffffffffffffffffff16600260009054906101000a900473ffffffffffffffffffffffffffffffffffffffff1673ffffffffffffffffffffffffffffffffffffffff16146114da576040517f08c379a00000000000000000000000000000000000000000000000000000000081526004016114d190612273565b60405180910390fd5b80600b8190555050565b60011515600c60009054906101000a900460ff1615151461153a576040517f08c379a0000000000000000000000000000000000000000000000000000000008152600401611531906120a6565b60405180910390fd5b806009541115801561154e575080600a5410155b61158d576040517f08c379a0000000000000000000000000000000000000000000000000000000008152600401611584906125e6565b60405180910390fd5b600160009054906101000a900473ffffffffffffffffffffffffffffffffffffffff1673ffffffffffffffffffffffffffffffffffffffff166323b872dd3330846040518463ffffffff1660e01b81526004016115ec939291906123ed565b6020604051808303816000875af115801561160b573d6000803e3d6000fd5b505050506040513d601f19601f8201168201806040525081019061162f91906123c0565b5060006002600454670de0b6b3a76400008461164b9190612495565b6116559190612424565b61165f9190612495565b905080600360008282546116739190612606565b9250508190555080600d60003373ffffffffffffffffffffffffffffffffffffffff1673ffffffffffffffffffffffffffffffffffffffff16815260200190815260200160002060000160008282546116cc9190612606565b925050819055506116dc82611c1e565b6116e4611bee565b5050565b60065481565b6000600160009054906101000a900473ffffffffffffffffffffffffffffffffffffffff1673ffffffffffffffffffffffffffffffffffffffff166370a08231306040518263ffffffff1660e01b815260040161174b9190611fee565b602060405180830381865afa158015611768573d6000803e3d6000fd5b505050506040513d601f19601f8201168201806040525081019061178c9190612547565b905090565b3373ffffffffffffffffffffffffffffffffffffffff16600260009054906101000a900473ffffffffffffffffffffffffffffffffffffffff1673ffffffffffffffffffffffffffffffffffffffff1614611821576040517f08c379a000000000000000000000000000000000000000000000000000000000815260040161181890612273565b60405180910390fd5b8160098190555080600a819055505050565b3373ffffffffffffffffffffffffffffffffffffffff16600260009054906101000a900473ffffffffffffffffffffffffffffffffffffffff1673ffffffffffffffffffffffffffffffffffffffff16146118c3576040517f08c379a00000000000000000000000000000000000000000000000000000000081526004016118ba90612273565b60405180910390fd5b80600260006101000a81548173ffffffffffffffffffffffffffffffffffffffff021916908373ffffffffffffffffffffffffffffffffffffffff16021790555050565b6000610e10600b546119199190612495565b6064600d60008573ffffffffffffffffffffffffffffffffffffffff1673ffffffffffffffffffffffffffffffffffffffff1681526020019081526020016000206000015460055461196b9190612424565b6119759190612495565b61197f9190612424565b905080600d60008473ffffffffffffffffffffffffffffffffffffffff1673ffffffffffffffffffffffffffffffffffffffff16815260200190815260200160002060060160008282546119d39190612606565b9250508190555080600d60008473ffffffffffffffffffffffffffffffffffffffff1673ffffffffffffffffffffffffffffffffffffffff1681526020019081526020016000206007016000828254611a2c9190612606565b925050819055505050565b6000611a4282610e17565b905060006002600454670de0b6b3a764000084611a5f9190612495565b611a699190612424565b611a739190612495565b90508060036000828254611a879190612606565b9250508190555080600d60003373ffffffffffffffffffffffffffffffffffffffff1673ffffffffffffffffffffffffffffffffffffffff1681526020019081526020016000206000016000828254611ae09190612606565b9250508190555081600d60003373ffffffffffffffffffffffffffffffffffffffff1673ffffffffffffffffffffffffffffffffffffffff1681526020019081526020016000206002016000828254611b399190612606565b925050819055506001600d60003373ffffffffffffffffffffffffffffffffffffffff1673ffffffffffffffffffffffffffffffffffffffff1681526020019081526020016000206003016000828254611b939190612606565b9250508190555042600d60003373ffffffffffffffffffffffffffffffffffffffff1673ffffffffffffffffffffffffffffffffffffffff16815260200190815260200160002060050181905550611be9611bee565b505050565b611bf66116ee565b670de0b6b3a7640000600354611c0c9190612424565b611c169190612495565b600481905550565b80600d60003373ffffffffffffffffffffffffffffffffffffffff1673ffffffffffffffffffffffffffffffffffffffff1681526020019081526020016000206001016000828254611c709190612606565b9250508190555080600d60003373ffffffffffffffffffffffffffffffffffffffff1673ffffffffffffffffffffffffffffffffffffffff1681526020019081526020016000206002016000828254611cc99190612606565b9250508190555042600d60003373ffffffffffffffffffffffffffffffffffffffff1673ffffffffffffffffffffffffffffffffffffffff1681526020019081526020016000206005018190555050565b600080fd5b600073ffffffffffffffffffffffffffffffffffffffff82169050919050565b6000611d4a82611d1f565b9050919050565b6000611d5c82611d3f565b9050919050565b611d6c81611d51565b8114611d7757600080fd5b50565b600081359050611d8981611d63565b92915050565b600060208284031215611da557611da4611d1a565b5b6000611db384828501611d7a565b91505092915050565b6000819050919050565b611dcf81611dbc565b8114611dda57600080fd5b50565b600081359050611dec81611dc6565b92915050565b600060208284031215611e0857611e07611d1a565b5b6000611e1684828501611ddd565b91505092915050565b611e2881611d3f565b8114611e3357600080fd5b50565b600081359050611e4581611e1f565b92915050565b600060208284031215611e6157611e60611d1a565b5b6000611e6f84828501611e36565b91505092915050565b611e8181611dbc565b82525050565b6000602082019050611e9c6000830184611e78565b92915050565b6000819050919050565b6000611ec7611ec2611ebd84611d1f565b611ea2565b611d1f565b9050919050565b6000611ed982611eac565b9050919050565b6000611eeb82611ece565b9050919050565b611efb81611ee0565b82525050565b6000602082019050611f166000830184611ef2565b92915050565b60008115159050919050565b611f3181611f1c565b82525050565b6000602082019050611f4c6000830184611f28565b92915050565b611f5b81611d3f565b82525050565b600061012082019050611f77600083018c611e78565b611f84602083018b611e78565b611f91604083018a611e78565b611f9e6060830189611e78565b611fab6080830188611e78565b611fb860a0830187611e78565b611fc560c0830186611e78565b611fd260e0830185611e78565b611fe0610100830184611f52565b9a9950505050505050505050565b60006020820190506120036000830184611f52565b92915050565b600080604083850312156120205761201f611d1a565b5b600061202e85828601611ddd565b925050602061203f85828601611ddd565b9150509250929050565b600082825260208201905092915050565b7f4d696e657220686173206e6f74206c61756e6368656420796574000000000000600082015250565b6000612090601a83612049565b915061209b8261205a565b602082019050919050565b600060208201905081810360008301526120bf81612083565b9050919050565b7f4e6f206465706f73697420686173206265656e206d616465206279207468697360008201527f2075736572000000000000000000000000000000000000000000000000000000602082015250565b6000612122602583612049565b915061212d826120c6565b604082019050919050565b6000602082019050818103600083015261215181612115565b9050919050565b7f4e487b7100000000000000000000000000000000000000000000000000000000600052601160045260246000fd5b600061219282611dbc565b915061219d83611dbc565b92508282039050818111156121b5576121b4612158565b5b92915050565b7f596f752063616e6e6f74206d696e65206e6f7700000000000000000000000000600082015250565b60006121f1601383612049565b91506121fc826121bb565b602082019050919050565b60006020820190508181036000830152612220816121e4565b9050919050565b7f4e6f7420617574686f72697a6564000000000000000000000000000000000000600082015250565b600061225d600e83612049565b915061226882612227565b602082019050919050565b6000602082019050818103600083015261228c81612250565b9050919050565b7f5769746864726177616c20526571756972656d656e7473206e6f74206d657400600082015250565b60006122c9601f83612049565b91506122d482612293565b602082019050919050565b600060208201905081810360008301526122f8816122bc565b9050919050565b7f416d6f756e7420657863656564732070726f666974206561726e656400000000600082015250565b6000612335601c83612049565b9150612340826122ff565b602082019050919050565b6000602082019050818103600083015261236481612328565b9050919050565b60006040820190506123806000830185611f52565b61238d6020830184611e78565b9392505050565b61239d81611f1c565b81146123a857600080fd5b50565b6000815190506123ba81612394565b92915050565b6000602082840312156123d6576123d5611d1a565b5b60006123e4848285016123ab565b91505092915050565b60006060820190506124026000830186611f52565b61240f6020830185611f52565b61241c6040830184611e78565b949350505050565b600061242f82611dbc565b915061243a83611dbc565b925082820261244881611dbc565b9150828204841483151761245f5761245e612158565b5b5092915050565b7f4e487b7100000000000000000000000000000000000000000000000000000000600052601260045260246000fd5b60006124a082611dbc565b91506124ab83611dbc565b9250826124bb576124ba612466565b5b828204905092915050565b7f4d696e657220616c7265616479206c61756e6368656400000000000000000000600082015250565b60006124fc601683612049565b9150612507826124c6565b602082019050919050565b6000602082019050818103600083015261252b816124ef565b9050919050565b60008151905061254181611dc6565b92915050565b60006020828403121561255d5761255c611d1a565b5b600061256b84828501612532565b91505092915050565b7f4465706f73697420616d6f756e74206f7574206f66207370656369666965642060008201527f72616e6765000000000000000000000000000000000000000000000000000000602082015250565b60006125d0602583612049565b91506125db82612574565b604082019050919050565b600060208201905081810360008301526125ff816125c3565b9050919050565b600061261182611dbc565b915061261c83611dbc565b925082820190508082111561263457612633612158565b5b9291505056fea26469706673582212203e31b44ca2d355bc59edd26b8d64c843643293b06a013ab4f1981b09b43754ae64736f6c63430008110033",
  "linkReferences": {},
  "deployedLinkReferences": {}
}