{
  "_format": "hh-sol-artifact-1",
  "contractName": "Miner",
  "sourceName": "contracts/Miner.sol",
  "abi": [
    {
      "inputs": [
        {
          "internalType": "contract ERC20",
          "name": "_mainToken",
          "type": "address"
        },
        {
          "internalType": "contract ERC20",
          "name": "_busd",
          "type": "address"
        }
      ],
      "stateMutability": "nonpayable",
      "type": "constructor"
    },
    {
      "inputs": [],
      "name": "busd",
      "outputs": [
        {
          "internalType": "contract ERC20",
          "name": "",
          "type": "address"
        }
      ],
      "stateMutability": "view",
      "type": "function"
    },
    {
      "inputs": [],
      "name": "busdBalance",
      "outputs": [
        {
          "internalType": "uint256",
          "name": "",
          "type": "uint256"
        }
      ],
      "stateMutability": "view",
      "type": "function"
    },
    {
      "inputs": [],
      "name": "busdDailyPercentage",
      "outputs": [
        {
          "internalType": "uint256",
          "name": "",
          "type": "uint256"
        }
      ],
      "stateMutability": "view",
      "type": "function"
    },
    {
      "inputs": [],
      "name": "busdMinerRate",
      "outputs": [
        {
          "internalType": "uint256",
          "name": "",
          "type": "uint256"
        }
      ],
      "stateMutability": "view",
      "type": "function"
    },
    {
      "inputs": [
        {
          "internalType": "uint256",
          "name": "amount",
          "type": "uint256"
        },
        {
          "internalType": "address",
          "name": "ref",
          "type": "address"
        }
      ],
      "name": "deposit",
      "outputs": [],
      "stateMutability": "nonpayable",
      "type": "function"
    },
    {
      "inputs": [],
      "name": "devAddress",
      "outputs": [
        {
          "internalType": "address",
          "name": "",
          "type": "address"
        }
      ],
      "stateMutability": "view",
      "type": "function"
    },
    {
      "inputs": [
        {
          "internalType": "address",
          "name": "_user",
          "type": "address"
        }
      ],
      "name": "getDailyBusdRewards",
      "outputs": [
        {
          "internalType": "uint256",
          "name": "",
          "type": "uint256"
        }
      ],
      "stateMutability": "view",
      "type": "function"
    },
    {
      "inputs": [],
      "name": "isMinerRunning",
      "outputs": [
        {
          "internalType": "bool",
          "name": "",
          "type": "bool"
        }
      ],
      "stateMutability": "view",
      "type": "function"
    },
    {
      "inputs": [
        {
          "internalType": "uint256",
          "name": "amount",
          "type": "uint256"
        }
      ],
      "name": "launch",
      "outputs": [],
      "stateMutability": "nonpayable",
      "type": "function"
    },
    {
      "inputs": [],
      "name": "mainToken",
      "outputs": [
        {
          "internalType": "contract ERC20",
          "name": "",
          "type": "address"
        }
      ],
      "stateMutability": "view",
      "type": "function"
    },
    {
      "inputs": [],
      "name": "mainTokenBalance",
      "outputs": [
        {
          "internalType": "uint256",
          "name": "",
          "type": "uint256"
        }
      ],
      "stateMutability": "view",
      "type": "function"
    },
    {
      "inputs": [],
      "name": "maximumDeposit",
      "outputs": [
        {
          "internalType": "uint256",
          "name": "",
          "type": "uint256"
        }
      ],
      "stateMutability": "view",
      "type": "function"
    },
    {
      "inputs": [],
      "name": "mineDuration",
      "outputs": [
        {
          "internalType": "uint256",
          "name": "",
          "type": "uint256"
        }
      ],
      "stateMutability": "view",
      "type": "function"
    },
    {
      "inputs": [],
      "name": "mineTokens",
      "outputs": [],
      "stateMutability": "nonpayable",
      "type": "function"
    },
    {
      "inputs": [],
      "name": "minimumCompoundRequired",
      "outputs": [
        {
          "internalType": "uint256",
          "name": "",
          "type": "uint256"
        }
      ],
      "stateMutability": "view",
      "type": "function"
    },
    {
      "inputs": [],
      "name": "minimumDaysRequired",
      "outputs": [
        {
          "internalType": "uint256",
          "name": "",
          "type": "uint256"
        }
      ],
      "stateMutability": "view",
      "type": "function"
    },
    {
      "inputs": [],
      "name": "minimumDeposit",
      "outputs": [
        {
          "internalType": "uint256",
          "name": "",
          "type": "uint256"
        }
      ],
      "stateMutability": "view",
      "type": "function"
    },
    {
      "inputs": [],
      "name": "owner",
      "outputs": [
        {
          "internalType": "address",
          "name": "",
          "type": "address"
        }
      ],
      "stateMutability": "view",
      "type": "function"
    },
    {
      "inputs": [],
      "name": "referralPercentage",
      "outputs": [
        {
          "internalType": "uint256",
          "name": "",
          "type": "uint256"
        }
      ],
      "stateMutability": "view",
      "type": "function"
    },
    {
      "inputs": [
        {
          "internalType": "uint256",
          "name": "_busdDailyPercentage",
          "type": "uint256"
        }
      ],
      "name": "setBusdDailyPercentage",
      "outputs": [],
      "stateMutability": "nonpayable",
      "type": "function"
    },
    {
      "inputs": [
        {
          "internalType": "uint256",
          "name": "_min",
          "type": "uint256"
        },
        {
          "internalType": "uint256",
          "name": "_max",
          "type": "uint256"
        }
      ],
      "name": "setDepositRange",
      "outputs": [],
      "stateMutability": "nonpayable",
      "type": "function"
    },
    {
      "inputs": [
        {
          "internalType": "address",
          "name": "_devAddress",
          "type": "address"
        }
      ],
      "name": "setDevAddress",
      "outputs": [],
      "stateMutability": "nonpayable",
      "type": "function"
    },
    {
      "inputs": [
        {
          "internalType": "contract ERC20",
          "name": "_newMainToken",
          "type": "address"
        }
      ],
      "name": "setMainToken",
      "outputs": [],
      "stateMutability": "nonpayable",
      "type": "function"
    },
    {
      "inputs": [
        {
          "internalType": "uint256",
          "name": "_mineDuration",
          "type": "uint256"
        }
      ],
      "name": "setMinerDuration",
      "outputs": [],
      "stateMutability": "nonpayable",
      "type": "function"
    },
    {
      "inputs": [
        {
          "internalType": "uint256",
          "name": "_minimumCompoundRequired",
          "type": "uint256"
        },
        {
          "internalType": "uint256",
          "name": "_minimumDaysRequired",
          "type": "uint256"
        }
      ],
      "name": "setMinimumRequirements",
      "outputs": [],
      "stateMutability": "nonpayable",
      "type": "function"
    },
    {
      "inputs": [
        {
          "internalType": "uint256",
          "name": "_referralPercentage",
          "type": "uint256"
        }
      ],
      "name": "setReferralPercentage",
      "outputs": [],
      "stateMutability": "nonpayable",
      "type": "function"
    },
    {
      "inputs": [
        {
          "internalType": "address",
          "name": "_taxAddress",
          "type": "address"
        }
      ],
      "name": "setTaxAddress",
      "outputs": [],
      "stateMutability": "nonpayable",
      "type": "function"
    },
    {
      "inputs": [],
      "name": "taxAddress",
      "outputs": [
        {
          "internalType": "address",
          "name": "",
          "type": "address"
        }
      ],
      "stateMutability": "view",
      "type": "function"
    },
    {
      "inputs": [],
      "name": "totalMiners",
      "outputs": [
        {
          "internalType": "uint256",
          "name": "",
          "type": "uint256"
        }
      ],
      "stateMutability": "view",
      "type": "function"
    },
    {
      "inputs": [
        {
          "internalType": "address",
          "name": "_owner",
          "type": "address"
        }
      ],
      "name": "transferOwnership",
      "outputs": [],
      "stateMutability": "nonpayable",
      "type": "function"
    },
    {
      "inputs": [
        {
          "internalType": "address",
          "name": "",
          "type": "address"
        }
      ],
      "name": "user",
      "outputs": [
        {
          "internalType": "uint256",
          "name": "miners",
          "type": "uint256"
        },
        {
          "internalType": "uint256",
          "name": "totalDeposit",
          "type": "uint256"
        },
        {
          "internalType": "uint256",
          "name": "totalCompounded",
          "type": "uint256"
        },
        {
          "internalType": "uint256",
          "name": "compoundCount",
          "type": "uint256"
        },
        {
          "internalType": "uint256",
          "name": "lastWithdrawTime",
          "type": "uint256"
        },
        {
          "internalType": "uint256",
          "name": "lastCompoundTime",
          "type": "uint256"
        },
        {
          "internalType": "uint256",
          "name": "totalTokensMined",
          "type": "uint256"
        },
        {
          "internalType": "uint256",
          "name": "currentTokensMined",
          "type": "uint256"
        },
        {
          "internalType": "address",
          "name": "referral",
          "type": "address"
        },
        {
          "internalType": "uint256",
          "name": "referralBonus",
          "type": "uint256"
        }
      ],
      "stateMutability": "view",
      "type": "function"
    },
    {
      "inputs": [
        {
          "internalType": "uint256",
          "name": "_amount",
          "type": "uint256"
        }
      ],
      "name": "withdraw",
      "outputs": [],
      "stateMutability": "nonpayable",
      "type": "function"
    },
    {
      "inputs": [],
      "name": "zeroAddress",
      "outputs": [
        {
          "internalType": "address",
          "name": "",
          "type": "address"
        }
      ],
      "stateMutability": "view",
      "type": "function"
    }
  ],
  "bytecode": "0x6080604052600d6005556003600655600780556007600855678ac7230489e80000600955681b1ae4d6e2ef500000600a5562015180600b55600a600c556000600f60006101000a81548173ffffffffffffffffffffffffffffffffffffffff021916908373ffffffffffffffffffffffffffffffffffffffff1602179055506000600f60146101000a81548160ff021916908315150217905550348015620000a657600080fd5b50604051620036c1380380620036c18339818101604052810190620000cc9190620003ad565b816000806101000a81548173ffffffffffffffffffffffffffffffffffffffff021916908373ffffffffffffffffffffffffffffffffffffffff16021790555080600160006101000a81548173ffffffffffffffffffffffffffffffffffffffff021916908373ffffffffffffffffffffffffffffffffffffffff16021790555033600260006101000a81548173ffffffffffffffffffffffffffffffffffffffff021916908373ffffffffffffffffffffffffffffffffffffffff16021790555033600d60006101000a81548173ffffffffffffffffffffffffffffffffffffffff021916908373ffffffffffffffffffffffffffffffffffffffff16021790555033600e60006101000a81548173ffffffffffffffffffffffffffffffffffffffff021916908373ffffffffffffffffffffffffffffffffffffffff1602179055506200025b6040518060400160405280600881526020017f4465706c6f7965640000000000000000000000000000000000000000000000008152506200026360201b62001d0d1760201c565b5050620004b2565b62000303816040516024016200027a91906200048e565b6040516020818303038152906040527f41304fac000000000000000000000000000000000000000000000000000000007bffffffffffffffffffffffffffffffffffffffffffffffffffffffff19166020820180517bffffffffffffffffffffffffffffffffffffffffffffffffffffffff83818316178352505050506200030660201b60201c565b50565b60008151905060006a636f6e736f6c652e6c6f679050602083016000808483855afa5050505050565b600080fd5b600073ffffffffffffffffffffffffffffffffffffffff82169050919050565b6000620003618262000334565b9050919050565b6000620003758262000354565b9050919050565b620003878162000368565b81146200039357600080fd5b50565b600081519050620003a7816200037c565b92915050565b60008060408385031215620003c757620003c66200032f565b5b6000620003d78582860162000396565b9250506020620003ea8582860162000396565b9150509250929050565b600081519050919050565b600082825260208201905092915050565b60005b838110156200043057808201518184015260208101905062000413565b60008484015250505050565b6000601f19601f8301169050919050565b60006200045a82620003f4565b620004668185620003ff565b93506200047881856020860162000410565b62000483816200043c565b840191505092915050565b60006020820190508181036000830152620004aa81846200044d565b905092915050565b6131ff80620004c26000396000f3fe608060405234801561001057600080fd5b50600436106101fb5760003560e01c806381e7e20e1161011a578063adbc6b6a116100ad578063ba2508781161007c578063ba2508781461054f578063d0d41fe11461056d578063dc39ca7a14610589578063e98b4067146105a7578063f2fde38b146105c3576101fb565b8063adbc6b6a146104db578063b3e15c13146104f7578063b5f45f1b14610515578063b7bda68f14610531576101fb565b806396ea8b9c116100e957806396ea8b9c14610467578063a0311bd414610485578063a1883d26146104a1578063a5d07e23146104bd576101fb565b806381e7e20e146103d657806385b12c7c1461040f57806387e025681461042b5780638da5cb5b14610449576101fb565b80633fc15f1511610192578063636bfbab11610161578063636bfbab146103605780636b2ab4ae1461037e5780636e553f651461039c578063764fe7d1146103b8576101fb565b80633fc15f15146102ea57806352bf7d5f1461030857806353c50dfc1461032657806354b302c514610342576101fb565b8063334ae49c116101ce578063334ae49c146102605780633ad10ef6146102905780633c90c0f9146102ae5780633ca5b234146102cc576101fb565b80630930907b14610200578063134610211461021e57806327ce464e146102285780632e1a7d4d14610244575b600080fd5b6102086105df565b60405161021591906127ca565b60405180910390f35b610226610605565b005b610242600480360381019061023d9190612828565b61078c565b005b61025e6004803603810190610259919061288b565b61085f565b005b61027a600480360381019061027591906128e4565b610f77565b6040516102879190612920565b60405180910390f35b61029861105d565b6040516102a591906127ca565b60405180910390f35b6102b6611083565b6040516102c39190612920565b60405180910390f35b6102d4611089565b6040516102e1919061299a565b60405180910390f35b6102f26110af565b6040516102ff919061299a565b60405180910390f35b6103106110d3565b60405161031d91906129d0565b60405180910390f35b610340600480360381019061033b919061288b565b6110e6565b005b61034a611180565b6040516103579190612920565b60405180910390f35b610368611186565b6040516103759190612920565b60405180910390f35b61038661118c565b6040516103939190612920565b60405180910390f35b6103b660048036038101906103b191906129eb565b611192565b005b6103c06113a2565b6040516103cd9190612920565b60405180910390f35b6103f060048036038101906103eb91906128e4565b6113a8565b6040516104069a99989796959493929190612a2b565b60405180910390f35b6104296004803603810190610424919061288b565b61141c565b005b610433611670565b6040516104409190612920565b60405180910390f35b610451611712565b60405161045e91906127ca565b60405180910390f35b61046f611738565b60405161047c9190612920565b60405180910390f35b61049f600480360381019061049a919061288b565b61173e565b005b6104bb60048036038101906104b691906128e4565b6117d8565b005b6104c56118ac565b6040516104d29190612920565b60405180910390f35b6104f560048036038101906104f09190612ac7565b6118b2565b005b6104ff611954565b60405161050c9190612920565b60405180910390f35b61052f600480360381019061052a919061288b565b61195a565b005b6105396119f4565b60405161054691906127ca565b60405180910390f35b610557611a1a565b6040516105649190612920565b60405180910390f35b610587600480360381019061058291906128e4565b611a20565b005b610591611af4565b60405161059e9190612920565b60405180910390f35b6105c160048036038101906105bc9190612ac7565b611b97565b005b6105dd60048036038101906105d891906128e4565b611c39565b005b600f60009054906101000a900473ffffffffffffffffffffffffffffffffffffffff1681565b60011515600f60149054906101000a900460ff1615151461065b576040517f08c379a000000000000000000000000000000000000000000000000000000000815260040161065290612b64565b60405180910390fd5b6000601060003373ffffffffffffffffffffffffffffffffffffffff1673ffffffffffffffffffffffffffffffffffffffff16815260200190815260200160002060010154116106e0576040517f08c379a00000000000000000000000000000000000000000000000000000000081526004016106d790612bf6565b60405180910390fd5b6000601060003373ffffffffffffffffffffffffffffffffffffffff1673ffffffffffffffffffffffffffffffffffffffff16815260200190815260200160002060050154426107309190612c45565b9050600b54811015610777576040517f08c379a000000000000000000000000000000000000000000000000000000000815260040161076e90612cc5565b60405180910390fd5b61078033611da6565b61078933611ee9565b50565b3373ffffffffffffffffffffffffffffffffffffffff16600260009054906101000a900473ffffffffffffffffffffffffffffffffffffffff1673ffffffffffffffffffffffffffffffffffffffff161461081c576040517f08c379a000000000000000000000000000000000000000000000000000000000815260040161081390612d31565b60405180910390fd5b806000806101000a81548173ffffffffffffffffffffffffffffffffffffffff021916908373ffffffffffffffffffffffffffffffffffffffff16021790555050565b60011515600f60149054906101000a900460ff161515146108b5576040517f08c379a00000000000000000000000000000000000000000000000000000000081526004016108ac90612b64565b60405180910390fd5b6000601060003373ffffffffffffffffffffffffffffffffffffffff1673ffffffffffffffffffffffffffffffffffffffff168152602001908152602001600020600101541161093a576040517f08c379a000000000000000000000000000000000000000000000000000000000815260040161093190612bf6565b60405180910390fd5b6000600854601060003373ffffffffffffffffffffffffffffffffffffffff1673ffffffffffffffffffffffffffffffffffffffff16815260200190815260200160002060030154101580156109d45750600754601060003373ffffffffffffffffffffffffffffffffffffffff1673ffffffffffffffffffffffffffffffffffffffff1681526020019081526020016000206003015410155b905080610a16576040517f08c379a0000000000000000000000000000000000000000000000000000000008152600401610a0d90612d9d565b60405180910390fd5b6000601060003373ffffffffffffffffffffffffffffffffffffffff1673ffffffffffffffffffffffffffffffffffffffff16815260200190815260200160002060010154601060003373ffffffffffffffffffffffffffffffffffffffff1673ffffffffffffffffffffffffffffffffffffffff16815260200190815260200160002060020154610aa89190612c45565b905080831115610aed576040517f08c379a0000000000000000000000000000000000000000000000000000000008152600401610ae490612e09565b60405180910390fd5b600160009054906101000a900473ffffffffffffffffffffffffffffffffffffffff1673ffffffffffffffffffffffffffffffffffffffff1663095ea7b330856040518363ffffffff1660e01b8152600401610b4a929190612e29565b6020604051808303816000875af1158015610b69573d6000803e3d6000fd5b505050506040513d601f19601f82011682018060405250810190610b8d9190612e7e565b50600160009054906101000a900473ffffffffffffffffffffffffffffffffffffffff1673ffffffffffffffffffffffffffffffffffffffff166323b872dd3033866040518463ffffffff1660e01b8152600401610bed93929190612eab565b6020604051808303816000875af1158015610c0c573d6000803e3d6000fd5b505050506040513d601f19601f82011682018060405250810190610c309190612e7e565b5060008054906101000a900473ffffffffffffffffffffffffffffffffffffffff1673ffffffffffffffffffffffffffffffffffffffff1663095ea7b330601060003373ffffffffffffffffffffffffffffffffffffffff1673ffffffffffffffffffffffffffffffffffffffff168152602001908152602001600020600701546040518363ffffffff1660e01b8152600401610cce929190612e29565b6020604051808303816000875af1158015610ced573d6000803e3d6000fd5b505050506040513d601f19601f82011682018060405250810190610d119190612e7e565b5060008054906101000a900473ffffffffffffffffffffffffffffffffffffffff1673ffffffffffffffffffffffffffffffffffffffff166323b872dd3033601060003373ffffffffffffffffffffffffffffffffffffffff1673ffffffffffffffffffffffffffffffffffffffff168152602001908152602001600020600701546040518463ffffffff1660e01b8152600401610db193929190612eab565b6020604051808303816000875af1158015610dd0573d6000803e3d6000fd5b505050506040513d601f19601f82011682018060405250810190610df49190612e7e565b5082601060003373ffffffffffffffffffffffffffffffffffffffff1673ffffffffffffffffffffffffffffffffffffffff1681526020019081526020016000206002016000828254610e479190612c45565b925050819055506000601060003373ffffffffffffffffffffffffffffffffffffffff1673ffffffffffffffffffffffffffffffffffffffff1681526020019081526020016000206003018190555042601060003373ffffffffffffffffffffffffffffffffffffffff1673ffffffffffffffffffffffffffffffffffffffff168152602001908152602001600020600501819055601060003373ffffffffffffffffffffffffffffffffffffffff1673ffffffffffffffffffffffffffffffffffffffff168152602001908152602001600020600401819055506000601060003373ffffffffffffffffffffffffffffffffffffffff1673ffffffffffffffffffffffffffffffffffffffff16815260200190815260200160002060070181905550610f726120a0565b505050565b600080601060008473ffffffffffffffffffffffffffffffffffffffff1673ffffffffffffffffffffffffffffffffffffffff1681526020019081526020016000206005015442610fc89190612c45565b9050600b5481106110525768056bc75e2d63100000601060008573ffffffffffffffffffffffffffffffffffffffff1673ffffffffffffffffffffffffffffffffffffffff16815260200190815260200160002060020154670de0b6b3a76400006006546110369190612ee2565b6110409190612ee2565b61104a9190612f53565b915050611058565b60009150505b919050565b600d60009054906101000a900473ffffffffffffffffffffffffffffffffffffffff1681565b60045481565b600160009054906101000a900473ffffffffffffffffffffffffffffffffffffffff1681565b60008054906101000a900473ffffffffffffffffffffffffffffffffffffffff1681565b600f60149054906101000a900460ff1681565b3373ffffffffffffffffffffffffffffffffffffffff16600260009054906101000a900473ffffffffffffffffffffffffffffffffffffffff1673ffffffffffffffffffffffffffffffffffffffff1614611176576040517f08c379a000000000000000000000000000000000000000000000000000000000815260040161116d90612d31565b60405180910390fd5b8060068190555050565b600a5481565b60095481565b60085481565b60011515600f60149054906101000a900460ff161515146111e8576040517f08c379a00000000000000000000000000000000000000000000000000000000081526004016111df90612b64565b60405180910390fd5b81600954111580156111fc575081600a5410155b61123b576040517f08c379a000000000000000000000000000000000000000000000000000000000815260040161123290612ff6565b60405180910390fd5b600160009054906101000a900473ffffffffffffffffffffffffffffffffffffffff1673ffffffffffffffffffffffffffffffffffffffff166323b872dd3330856040518463ffffffff1660e01b815260040161129a93929190612eab565b6020604051808303816000875af11580156112b9573d6000803e3d6000fd5b505050506040513d601f19601f820116820180604052508101906112dd9190612e7e565b5060006002600454670de0b6b3a7640000856112f99190612f53565b6113039190612ee2565b61130d9190612f53565b905080600360008282546113219190613016565b9250508190555080601060003373ffffffffffffffffffffffffffffffffffffffff1673ffffffffffffffffffffffffffffffffffffffff168152602001908152602001600020600001600082825461137a9190613016565b9250508190555061138a836120d0565b6113958333846121cc565b61139d6120a0565b505050565b60035481565b60106020528060005260406000206000915090508060000154908060010154908060020154908060030154908060040154908060050154908060060154908060070154908060080160009054906101000a900473ffffffffffffffffffffffffffffffffffffffff1690806009015490508a565b3373ffffffffffffffffffffffffffffffffffffffff16600260009054906101000a900473ffffffffffffffffffffffffffffffffffffffff1673ffffffffffffffffffffffffffffffffffffffff16146114ac576040517f08c379a00000000000000000000000000000000000000000000000000000000081526004016114a390612d31565b60405180910390fd5b60001515600f60149054906101000a900460ff16151514611502576040517f08c379a00000000000000000000000000000000000000000000000000000000081526004016114f990613096565b60405180910390fd5b600160009054906101000a900473ffffffffffffffffffffffffffffffffffffffff1673ffffffffffffffffffffffffffffffffffffffff166323b872dd3330846040518463ffffffff1660e01b815260040161156193929190612eab565b6020604051808303816000875af1158015611580573d6000803e3d6000fd5b505050506040513d601f19601f820116820180604052508101906115a49190612e7e565b50670de0b6b3a76400006115b6611af4565b600a6115c29190612ee2565b6115cc9190612f53565b6003819055506115da611af4565b670de0b6b3a76400006003546115f09190612ee2565b6115fa9190612f53565b6004819055506001600f60146101000a81548160ff021916908315150217905550600354601060003373ffffffffffffffffffffffffffffffffffffffff1673ffffffffffffffffffffffffffffffffffffffff1681526020019081526020016000206000018190555061166d816120d0565b50565b60008060009054906101000a900473ffffffffffffffffffffffffffffffffffffffff1673ffffffffffffffffffffffffffffffffffffffff166370a08231306040518263ffffffff1660e01b81526004016116cc91906127ca565b602060405180830381865afa1580156116e9573d6000803e3d6000fd5b505050506040513d601f19601f8201168201806040525081019061170d91906130cb565b905090565b600260009054906101000a900473ffffffffffffffffffffffffffffffffffffffff1681565b600c5481565b3373ffffffffffffffffffffffffffffffffffffffff16600260009054906101000a900473ffffffffffffffffffffffffffffffffffffffff1673ffffffffffffffffffffffffffffffffffffffff16146117ce576040517f08c379a00000000000000000000000000000000000000000000000000000000081526004016117c590612d31565b60405180910390fd5b80600c8190555050565b3373ffffffffffffffffffffffffffffffffffffffff16600260009054906101000a900473ffffffffffffffffffffffffffffffffffffffff1673ffffffffffffffffffffffffffffffffffffffff1614611868576040517f08c379a000000000000000000000000000000000000000000000000000000000815260040161185f90612d31565b60405180910390fd5b80600e60006101000a81548173ffffffffffffffffffffffffffffffffffffffff021916908373ffffffffffffffffffffffffffffffffffffffff16021790555050565b600b5481565b3373ffffffffffffffffffffffffffffffffffffffff16600260009054906101000a900473ffffffffffffffffffffffffffffffffffffffff1673ffffffffffffffffffffffffffffffffffffffff1614611942576040517f08c379a000000000000000000000000000000000000000000000000000000000815260040161193990612d31565b60405180910390fd5b81600781905550806008819055505050565b60075481565b3373ffffffffffffffffffffffffffffffffffffffff16600260009054906101000a900473ffffffffffffffffffffffffffffffffffffffff1673ffffffffffffffffffffffffffffffffffffffff16146119ea576040517f08c379a00000000000000000000000000000000000000000000000000000000081526004016119e190612d31565b60405180910390fd5b80600b8190555050565b600e60009054906101000a900473ffffffffffffffffffffffffffffffffffffffff1681565b60065481565b3373ffffffffffffffffffffffffffffffffffffffff16600260009054906101000a900473ffffffffffffffffffffffffffffffffffffffff1673ffffffffffffffffffffffffffffffffffffffff1614611ab0576040517f08c379a0000000000000000000000000000000000000000000000000000000008152600401611aa790612d31565b60405180910390fd5b80600d60006101000a81548173ffffffffffffffffffffffffffffffffffffffff021916908373ffffffffffffffffffffffffffffffffffffffff16021790555050565b6000600160009054906101000a900473ffffffffffffffffffffffffffffffffffffffff1673ffffffffffffffffffffffffffffffffffffffff166370a08231306040518263ffffffff1660e01b8152600401611b5191906127ca565b602060405180830381865afa158015611b6e573d6000803e3d6000fd5b505050506040513d601f19601f82011682018060405250810190611b9291906130cb565b905090565b3373ffffffffffffffffffffffffffffffffffffffff16600260009054906101000a900473ffffffffffffffffffffffffffffffffffffffff1673ffffffffffffffffffffffffffffffffffffffff1614611c27576040517f08c379a0000000000000000000000000000000000000000000000000000000008152600401611c1e90612d31565b60405180910390fd5b8160098190555080600a819055505050565b3373ffffffffffffffffffffffffffffffffffffffff16600260009054906101000a900473ffffffffffffffffffffffffffffffffffffffff1673ffffffffffffffffffffffffffffffffffffffff1614611cc9576040517f08c379a0000000000000000000000000000000000000000000000000000000008152600401611cc090612d31565b60405180910390fd5b80600260006101000a81548173ffffffffffffffffffffffffffffffffffffffff021916908373ffffffffffffffffffffffffffffffffffffffff16021790555050565b611da381604051602401611d219190613177565b6040516020818303038152906040527f41304fac000000000000000000000000000000000000000000000000000000007bffffffffffffffffffffffffffffffffffffffffffffffffffffffff19166020820180517bffffffffffffffffffffffffffffffffffffffffffffffffffffffff83818316178352505050506126c4565b50565b6000670de0b6b3a7640000610e10600b54611dc19190612f53565b6064601060008673ffffffffffffffffffffffffffffffffffffffff1673ffffffffffffffffffffffffffffffffffffffff16815260200190815260200160002060000154600554611e139190612ee2565b611e1d9190612f53565b611e279190612ee2565b611e319190612ee2565b905080601060008473ffffffffffffffffffffffffffffffffffffffff1673ffffffffffffffffffffffffffffffffffffffff1681526020019081526020016000206006016000828254611e859190613016565b9250508190555080601060008473ffffffffffffffffffffffffffffffffffffffff1673ffffffffffffffffffffffffffffffffffffffff1681526020019081526020016000206007016000828254611ede9190613016565b925050819055505050565b6000611ef482610f77565b905060006002600454670de0b6b3a764000084611f119190612f53565b611f1b9190612ee2565b611f259190612f53565b90508060036000828254611f399190613016565b9250508190555080601060003373ffffffffffffffffffffffffffffffffffffffff1673ffffffffffffffffffffffffffffffffffffffff1681526020019081526020016000206000016000828254611f929190613016565b9250508190555081601060003373ffffffffffffffffffffffffffffffffffffffff1673ffffffffffffffffffffffffffffffffffffffff1681526020019081526020016000206002016000828254611feb9190613016565b925050819055506001601060003373ffffffffffffffffffffffffffffffffffffffff1673ffffffffffffffffffffffffffffffffffffffff16815260200190815260200160002060030160008282546120459190613016565b9250508190555042601060003373ffffffffffffffffffffffffffffffffffffffff1673ffffffffffffffffffffffffffffffffffffffff1681526020019081526020016000206005018190555061209b6120a0565b505050565b6120a8611af4565b670de0b6b3a76400006003546120be9190612ee2565b6120c89190612f53565b600481905550565b80601060003373ffffffffffffffffffffffffffffffffffffffff1673ffffffffffffffffffffffffffffffffffffffff16815260200190815260200160002060010160008282546121229190613016565b9250508190555080601060003373ffffffffffffffffffffffffffffffffffffffff1673ffffffffffffffffffffffffffffffffffffffff168152602001908152602001600020600201600082825461217b9190613016565b9250508190555042601060003373ffffffffffffffffffffffffffffffffffffffff1673ffffffffffffffffffffffffffffffffffffffff1681526020019081526020016000206005018190555050565b600f60009054906101000a900473ffffffffffffffffffffffffffffffffffffffff1673ffffffffffffffffffffffffffffffffffffffff16601060008473ffffffffffffffffffffffffffffffffffffffff1673ffffffffffffffffffffffffffffffffffffffff16815260200190815260200160002060080160009054906101000a900473ffffffffffffffffffffffffffffffffffffffff1673ffffffffffffffffffffffffffffffffffffffff160361238357600f60009054906101000a900473ffffffffffffffffffffffffffffffffffffffff1673ffffffffffffffffffffffffffffffffffffffff168173ffffffffffffffffffffffffffffffffffffffff160361230057600d60009054906101000a900473ffffffffffffffffffffffffffffffffffffffff16612302565b805b601060008473ffffffffffffffffffffffffffffffffffffffff1673ffffffffffffffffffffffffffffffffffffffff16815260200190815260200160002060080160006101000a81548173ffffffffffffffffffffffffffffffffffffffff021916908373ffffffffffffffffffffffffffffffffffffffff1602179055505b6124246040518060400160405280601781526020017f526566657272616c206164647265737320697320257320000000000000000000815250601060008573ffffffffffffffffffffffffffffffffffffffff1673ffffffffffffffffffffffffffffffffffffffff16815260200190815260200160002060080160009054906101000a900473ffffffffffffffffffffffffffffffffffffffff166126ed565b600068056bc75e2d6310000084670de0b6b3a7640000600c546124479190612ee2565b6124519190612ee2565b61245b9190612f53565b9050600160009054906101000a900473ffffffffffffffffffffffffffffffffffffffff1673ffffffffffffffffffffffffffffffffffffffff1663095ea7b330866040518363ffffffff1660e01b81526004016124ba929190612e29565b6020604051808303816000875af11580156124d9573d6000803e3d6000fd5b505050506040513d601f19601f820116820180604052508101906124fd9190612e7e565b50600160009054906101000a900473ffffffffffffffffffffffffffffffffffffffff1673ffffffffffffffffffffffffffffffffffffffff166323b872dd30601060008773ffffffffffffffffffffffffffffffffffffffff1673ffffffffffffffffffffffffffffffffffffffff16815260200190815260200160002060080160009054906101000a900473ffffffffffffffffffffffffffffffffffffffff16846040518463ffffffff1660e01b81526004016125bf93929190612eab565b6020604051808303816000875af11580156125de573d6000803e3d6000fd5b505050506040513d601f19601f820116820180604052508101906126029190612e7e565b508060106000601060008773ffffffffffffffffffffffffffffffffffffffff1673ffffffffffffffffffffffffffffffffffffffff16815260200190815260200160002060080160009054906101000a900473ffffffffffffffffffffffffffffffffffffffff1673ffffffffffffffffffffffffffffffffffffffff1673ffffffffffffffffffffffffffffffffffffffff16815260200190815260200160002060090160008282546126b79190613016565b9250508190555050505050565b60008151905060006a636f6e736f6c652e6c6f679050602083016000808483855afa5050505050565b6127858282604051602401612703929190613199565b6040516020818303038152906040527f319af333000000000000000000000000000000000000000000000000000000007bffffffffffffffffffffffffffffffffffffffffffffffffffffffff19166020820180517bffffffffffffffffffffffffffffffffffffffffffffffffffffffff83818316178352505050506126c4565b5050565b600073ffffffffffffffffffffffffffffffffffffffff82169050919050565b60006127b482612789565b9050919050565b6127c4816127a9565b82525050565b60006020820190506127df60008301846127bb565b92915050565b600080fd5b60006127f5826127a9565b9050919050565b612805816127ea565b811461281057600080fd5b50565b600081359050612822816127fc565b92915050565b60006020828403121561283e5761283d6127e5565b5b600061284c84828501612813565b91505092915050565b6000819050919050565b61286881612855565b811461287357600080fd5b50565b6000813590506128858161285f565b92915050565b6000602082840312156128a1576128a06127e5565b5b60006128af84828501612876565b91505092915050565b6128c1816127a9565b81146128cc57600080fd5b50565b6000813590506128de816128b8565b92915050565b6000602082840312156128fa576128f96127e5565b5b6000612908848285016128cf565b91505092915050565b61291a81612855565b82525050565b60006020820190506129356000830184612911565b92915050565b6000819050919050565b600061296061295b61295684612789565b61293b565b612789565b9050919050565b600061297282612945565b9050919050565b600061298482612967565b9050919050565b61299481612979565b82525050565b60006020820190506129af600083018461298b565b92915050565b60008115159050919050565b6129ca816129b5565b82525050565b60006020820190506129e560008301846129c1565b92915050565b60008060408385031215612a0257612a016127e5565b5b6000612a1085828601612876565b9250506020612a21858286016128cf565b9150509250929050565b600061014082019050612a41600083018d612911565b612a4e602083018c612911565b612a5b604083018b612911565b612a68606083018a612911565b612a756080830189612911565b612a8260a0830188612911565b612a8f60c0830187612911565b612a9c60e0830186612911565b612aaa6101008301856127bb565b612ab8610120830184612911565b9b9a5050505050505050505050565b60008060408385031215612ade57612add6127e5565b5b6000612aec85828601612876565b9250506020612afd85828601612876565b9150509250929050565b600082825260208201905092915050565b7f4d696e657220686173206e6f74206c61756e6368656420796574000000000000600082015250565b6000612b4e601a83612b07565b9150612b5982612b18565b602082019050919050565b60006020820190508181036000830152612b7d81612b41565b9050919050565b7f4e6f206465706f73697420686173206265656e206d616465206279207468697360008201527f2075736572000000000000000000000000000000000000000000000000000000602082015250565b6000612be0602583612b07565b9150612beb82612b84565b604082019050919050565b60006020820190508181036000830152612c0f81612bd3565b9050919050565b7f4e487b7100000000000000000000000000000000000000000000000000000000600052601160045260246000fd5b6000612c5082612855565b9150612c5b83612855565b9250828203905081811115612c7357612c72612c16565b5b92915050565b7f596f752063616e6e6f74206d696e65206e6f7700000000000000000000000000600082015250565b6000612caf601383612b07565b9150612cba82612c79565b602082019050919050565b60006020820190508181036000830152612cde81612ca2565b9050919050565b7f4e6f7420617574686f72697a6564000000000000000000000000000000000000600082015250565b6000612d1b600e83612b07565b9150612d2682612ce5565b602082019050919050565b60006020820190508181036000830152612d4a81612d0e565b9050919050565b7f5769746864726177616c20526571756972656d656e7473206e6f74206d657400600082015250565b6000612d87601f83612b07565b9150612d9282612d51565b602082019050919050565b60006020820190508181036000830152612db681612d7a565b9050919050565b7f416d6f756e7420657863656564732070726f666974206561726e656400000000600082015250565b6000612df3601c83612b07565b9150612dfe82612dbd565b602082019050919050565b60006020820190508181036000830152612e2281612de6565b9050919050565b6000604082019050612e3e60008301856127bb565b612e4b6020830184612911565b9392505050565b612e5b816129b5565b8114612e6657600080fd5b50565b600081519050612e7881612e52565b92915050565b600060208284031215612e9457612e936127e5565b5b6000612ea284828501612e69565b91505092915050565b6000606082019050612ec060008301866127bb565b612ecd60208301856127bb565b612eda6040830184612911565b949350505050565b6000612eed82612855565b9150612ef883612855565b9250828202612f0681612855565b91508282048414831517612f1d57612f1c612c16565b5b5092915050565b7f4e487b7100000000000000000000000000000000000000000000000000000000600052601260045260246000fd5b6000612f5e82612855565b9150612f6983612855565b925082612f7957612f78612f24565b5b828204905092915050565b7f4465706f73697420616d6f756e74206f7574206f66207370656369666965642060008201527f72616e6765000000000000000000000000000000000000000000000000000000602082015250565b6000612fe0602583612b07565b9150612feb82612f84565b604082019050919050565b6000602082019050818103600083015261300f81612fd3565b9050919050565b600061302182612855565b915061302c83612855565b925082820190508082111561304457613043612c16565b5b92915050565b7f4d696e657220616c7265616479206c61756e6368656400000000000000000000600082015250565b6000613080601683612b07565b915061308b8261304a565b602082019050919050565b600060208201905081810360008301526130af81613073565b9050919050565b6000815190506130c58161285f565b92915050565b6000602082840312156130e1576130e06127e5565b5b60006130ef848285016130b6565b91505092915050565b600081519050919050565b60005b83811015613121578082015181840152602081019050613106565b60008484015250505050565b6000601f19601f8301169050919050565b6000613149826130f8565b6131538185612b07565b9350613163818560208601613103565b61316c8161312d565b840191505092915050565b60006020820190508181036000830152613191818461313e565b905092915050565b600060408201905081810360008301526131b3818561313e565b90506131c260208301846127bb565b939250505056fea2646970667358221220dd4ae1c88cedafc5c2c9847bce5c7025b5beab0e02aea28efc86a5dfc69f26f664736f6c63430008110033",
  "linkReferences": {},
  "deployedLinkReferences": {}
}