{
  "_format": "hh-sol-artifact-1",
  "contractName": "Miner",
  "sourceName": "contracts/Miner.sol",
  "abi": [
    {
      "inputs": [
        {
          "internalType": "contract ERC20",
          "name": "_mainToken",
          "type": "address"
        }
      ],
      "stateMutability": "nonpayable",
      "type": "constructor"
    },
    {
      "inputs": [],
      "name": "busd",
      "outputs": [
        {
          "internalType": "contract ERC20",
          "name": "",
          "type": "address"
        }
      ],
      "stateMutability": "view",
      "type": "function"
    },
    {
      "inputs": [],
      "name": "busdBalance",
      "outputs": [
        {
          "internalType": "uint256",
          "name": "",
          "type": "uint256"
        }
      ],
      "stateMutability": "view",
      "type": "function"
    },
    {
      "inputs": [],
      "name": "busdDailyPercentage",
      "outputs": [
        {
          "internalType": "uint256",
          "name": "",
          "type": "uint256"
        }
      ],
      "stateMutability": "view",
      "type": "function"
    },
    {
      "inputs": [],
      "name": "busdMinerRate",
      "outputs": [
        {
          "internalType": "uint256",
          "name": "",
          "type": "uint256"
        }
      ],
      "stateMutability": "view",
      "type": "function"
    },
    {
      "inputs": [
        {
          "internalType": "uint256",
          "name": "amount",
          "type": "uint256"
        }
      ],
      "name": "deposit",
      "outputs": [],
      "stateMutability": "nonpayable",
      "type": "function"
    },
    {
      "inputs": [
        {
          "internalType": "address",
          "name": "_user",
          "type": "address"
        }
      ],
      "name": "getDailyBusdRewards",
      "outputs": [
        {
          "internalType": "uint256",
          "name": "",
          "type": "uint256"
        }
      ],
      "stateMutability": "view",
      "type": "function"
    },
    {
      "inputs": [],
      "name": "isMinerRunning",
      "outputs": [
        {
          "internalType": "bool",
          "name": "",
          "type": "bool"
        }
      ],
      "stateMutability": "view",
      "type": "function"
    },
    {
      "inputs": [
        {
          "internalType": "uint256",
          "name": "amount",
          "type": "uint256"
        }
      ],
      "name": "launch",
      "outputs": [],
      "stateMutability": "nonpayable",
      "type": "function"
    },
    {
      "inputs": [],
      "name": "mainToken",
      "outputs": [
        {
          "internalType": "contract ERC20",
          "name": "",
          "type": "address"
        }
      ],
      "stateMutability": "view",
      "type": "function"
    },
    {
      "inputs": [],
      "name": "mainTokenBalance",
      "outputs": [
        {
          "internalType": "uint256",
          "name": "",
          "type": "uint256"
        }
      ],
      "stateMutability": "view",
      "type": "function"
    },
    {
      "inputs": [],
      "name": "maximumDeposit",
      "outputs": [
        {
          "internalType": "uint256",
          "name": "",
          "type": "uint256"
        }
      ],
      "stateMutability": "view",
      "type": "function"
    },
    {
      "inputs": [],
      "name": "mineDuration",
      "outputs": [
        {
          "internalType": "uint256",
          "name": "",
          "type": "uint256"
        }
      ],
      "stateMutability": "view",
      "type": "function"
    },
    {
      "inputs": [],
      "name": "mineTokens",
      "outputs": [],
      "stateMutability": "nonpayable",
      "type": "function"
    },
    {
      "inputs": [],
      "name": "minimumCompoundRequired",
      "outputs": [
        {
          "internalType": "uint256",
          "name": "",
          "type": "uint256"
        }
      ],
      "stateMutability": "view",
      "type": "function"
    },
    {
      "inputs": [],
      "name": "minimumDaysRequired",
      "outputs": [
        {
          "internalType": "uint256",
          "name": "",
          "type": "uint256"
        }
      ],
      "stateMutability": "view",
      "type": "function"
    },
    {
      "inputs": [],
      "name": "minimumDeposit",
      "outputs": [
        {
          "internalType": "uint256",
          "name": "",
          "type": "uint256"
        }
      ],
      "stateMutability": "view",
      "type": "function"
    },
    {
      "inputs": [],
      "name": "owner",
      "outputs": [
        {
          "internalType": "address",
          "name": "",
          "type": "address"
        }
      ],
      "stateMutability": "view",
      "type": "function"
    },
    {
      "inputs": [
        {
          "internalType": "uint256",
          "name": "_busdDailyPercentage",
          "type": "uint256"
        }
      ],
      "name": "setBusdDailyPercentage",
      "outputs": [],
      "stateMutability": "nonpayable",
      "type": "function"
    },
    {
      "inputs": [
        {
          "internalType": "uint256",
          "name": "_min",
          "type": "uint256"
        },
        {
          "internalType": "uint256",
          "name": "_max",
          "type": "uint256"
        }
      ],
      "name": "setDepositRange",
      "outputs": [],
      "stateMutability": "nonpayable",
      "type": "function"
    },
    {
      "inputs": [
        {
          "internalType": "contract ERC20",
          "name": "_newMainToken",
          "type": "address"
        }
      ],
      "name": "setMainToken",
      "outputs": [],
      "stateMutability": "nonpayable",
      "type": "function"
    },
    {
      "inputs": [
        {
          "internalType": "uint256",
          "name": "_mineDuration",
          "type": "uint256"
        }
      ],
      "name": "setMinerDuration",
      "outputs": [],
      "stateMutability": "nonpayable",
      "type": "function"
    },
    {
      "inputs": [
        {
          "internalType": "uint256",
          "name": "_minimumCompoundRequired",
          "type": "uint256"
        },
        {
          "internalType": "uint256",
          "name": "_minimumDaysRequired",
          "type": "uint256"
        }
      ],
      "name": "setMinimumRequirements",
      "outputs": [],
      "stateMutability": "nonpayable",
      "type": "function"
    },
    {
      "inputs": [],
      "name": "totalMiners",
      "outputs": [
        {
          "internalType": "uint256",
          "name": "",
          "type": "uint256"
        }
      ],
      "stateMutability": "view",
      "type": "function"
    },
    {
      "inputs": [
        {
          "internalType": "address",
          "name": "_owner",
          "type": "address"
        }
      ],
      "name": "transferOwnership",
      "outputs": [],
      "stateMutability": "nonpayable",
      "type": "function"
    },
    {
      "inputs": [
        {
          "internalType": "address",
          "name": "",
          "type": "address"
        }
      ],
      "name": "user",
      "outputs": [
        {
          "internalType": "uint256",
          "name": "miners",
          "type": "uint256"
        },
        {
          "internalType": "uint256",
          "name": "totalDeposit",
          "type": "uint256"
        },
        {
          "internalType": "uint256",
          "name": "totalCompounded",
          "type": "uint256"
        },
        {
          "internalType": "uint256",
          "name": "compoundCount",
          "type": "uint256"
        },
        {
          "internalType": "uint256",
          "name": "lastWithdrawTime",
          "type": "uint256"
        },
        {
          "internalType": "uint256",
          "name": "lastCompoundTime",
          "type": "uint256"
        },
        {
          "internalType": "uint256",
          "name": "totalTokensMined",
          "type": "uint256"
        },
        {
          "internalType": "uint256",
          "name": "currentTokensMined",
          "type": "uint256"
        }
      ],
      "stateMutability": "view",
      "type": "function"
    },
    {
      "inputs": [
        {
          "internalType": "uint256",
          "name": "_amount",
          "type": "uint256"
        }
      ],
      "name": "withdraw",
      "outputs": [],
      "stateMutability": "nonpayable",
      "type": "function"
    }
  ],
  "bytecode": "0x60806040527378867bbeef44f2326bf8ddd1941a4439382ef2a7600160006101000a81548173ffffffffffffffffffffffffffffffffffffffff021916908373ffffffffffffffffffffffffffffffffffffffff160217905550600d6005556003600655600780556007600855600a6009556101f4600a5562015180600b556000600c60006101000a81548160ff021916908315150217905550348015620000a657600080fd5b506040516200284e3803806200284e8339818101604052810190620000cc9190620001d2565b806000806101000a81548173ffffffffffffffffffffffffffffffffffffffff021916908373ffffffffffffffffffffffffffffffffffffffff16021790555033600260006101000a81548173ffffffffffffffffffffffffffffffffffffffff021916908373ffffffffffffffffffffffffffffffffffffffff1602179055505062000204565b600080fd5b600073ffffffffffffffffffffffffffffffffffffffff82169050919050565b6000620001868262000159565b9050919050565b60006200019a8262000179565b9050919050565b620001ac816200018d565b8114620001b857600080fd5b50565b600081519050620001cc81620001a1565b92915050565b600060208284031215620001eb57620001ea62000154565b5b6000620001fb84828501620001bb565b91505092915050565b61263a80620002146000396000f3fe608060405234801561001057600080fd5b506004361061018e5760003560e01c806381e7e20e116100de578063b3e15c1311610097578063ba25087811610071578063ba25087814610430578063dc39ca7a1461044e578063e98b40671461046c578063f2fde38b146104885761018e565b8063b3e15c13146103da578063b5f45f1b146103f8578063b6b55f25146104145761018e565b806381e7e20e1461031157806385b12c7c1461034857806387e02568146103645780638da5cb5b14610382578063a5d07e23146103a0578063adbc6b6a146103be5761018e565b80633fc15f151161014b57806354b302c51161012557806354b302c514610299578063636bfbab146102b75780636b2ab4ae146102d5578063764fe7d1146102f35761018e565b80633fc15f151461024157806352bf7d5f1461025f57806353c50dfc1461027d5761018e565b8063134610211461019357806327ce464e1461019d5780632e1a7d4d146101b9578063334ae49c146101d55780633c90c0f9146102055780633ca5b23414610223575b600080fd5b61019b6104a4565b005b6101b760048036038101906101b29190611d68565b61062b565b005b6101d360048036038101906101ce9190611dcb565b6106fe565b005b6101ef60048036038101906101ea9190611e24565b610e16565b6040516101fc9190611e60565b60405180910390f35b61020d610efc565b60405161021a9190611e60565b60405180910390f35b61022b610f02565b6040516102389190611eda565b60405180910390f35b610249610f28565b6040516102569190611eda565b60405180910390f35b610267610f4c565b6040516102749190611f10565b60405180910390f35b61029760048036038101906102929190611dcb565b610f5f565b005b6102a1610ff9565b6040516102ae9190611e60565b60405180910390f35b6102bf610fff565b6040516102cc9190611e60565b60405180910390f35b6102dd611005565b6040516102ea9190611e60565b60405180910390f35b6102fb61100b565b6040516103089190611e60565b60405180910390f35b61032b60048036038101906103269190611e24565b611011565b60405161033f989796959493929190611f2b565b60405180910390f35b610362600480360381019061035d9190611dcb565b611059565b005b61036c6112ad565b6040516103799190611e60565b60405180910390f35b61038a61134f565b6040516103979190611fb8565b60405180910390f35b6103a8611375565b6040516103b59190611e60565b60405180910390f35b6103d860048036038101906103d39190611fd3565b61137b565b005b6103e261141d565b6040516103ef9190611e60565b60405180910390f35b610412600480360381019061040d9190611dcb565b611423565b005b61042e60048036038101906104299190611dcb565b6114bd565b005b6104386116c1565b6040516104459190611e60565b60405180910390f35b6104566116c7565b6040516104639190611e60565b60405180910390f35b61048660048036038101906104819190611fd3565b61176a565b005b6104a2600480360381019061049d9190611e24565b61180c565b005b60011515600c60009054906101000a900460ff161515146104fa576040517f08c379a00000000000000000000000000000000000000000000000000000000081526004016104f190612070565b60405180910390fd5b6000600d60003373ffffffffffffffffffffffffffffffffffffffff1673ffffffffffffffffffffffffffffffffffffffff168152602001908152602001600020600101541161057f576040517f08c379a000000000000000000000000000000000000000000000000000000000815260040161057690612102565b60405180910390fd5b6000600d60003373ffffffffffffffffffffffffffffffffffffffff1673ffffffffffffffffffffffffffffffffffffffff16815260200190815260200160002060050154426105cf9190612151565b9050600b54811015610616576040517f08c379a000000000000000000000000000000000000000000000000000000000815260040161060d906121d1565b60405180910390fd5b61061f336118e0565b61062833611a10565b50565b3373ffffffffffffffffffffffffffffffffffffffff16600260009054906101000a900473ffffffffffffffffffffffffffffffffffffffff1673ffffffffffffffffffffffffffffffffffffffff16146106bb576040517f08c379a00000000000000000000000000000000000000000000000000000000081526004016106b29061223d565b60405180910390fd5b806000806101000a81548173ffffffffffffffffffffffffffffffffffffffff021916908373ffffffffffffffffffffffffffffffffffffffff16021790555050565b60011515600c60009054906101000a900460ff16151514610754576040517f08c379a000000000000000000000000000000000000000000000000000000000815260040161074b90612070565b60405180910390fd5b6000600d60003373ffffffffffffffffffffffffffffffffffffffff1673ffffffffffffffffffffffffffffffffffffffff16815260200190815260200160002060010154116107d9576040517f08c379a00000000000000000000000000000000000000000000000000000000081526004016107d090612102565b60405180910390fd5b6000600854600d60003373ffffffffffffffffffffffffffffffffffffffff1673ffffffffffffffffffffffffffffffffffffffff16815260200190815260200160002060030154101580156108735750600754600d60003373ffffffffffffffffffffffffffffffffffffffff1673ffffffffffffffffffffffffffffffffffffffff1681526020019081526020016000206003015410155b9050806108b5576040517f08c379a00000000000000000000000000000000000000000000000000000000081526004016108ac906122a9565b60405180910390fd5b6000600d60003373ffffffffffffffffffffffffffffffffffffffff1673ffffffffffffffffffffffffffffffffffffffff16815260200190815260200160002060010154600d60003373ffffffffffffffffffffffffffffffffffffffff1673ffffffffffffffffffffffffffffffffffffffff168152602001908152602001600020600201546109479190612151565b90508083111561098c576040517f08c379a000000000000000000000000000000000000000000000000000000000815260040161098390612315565b60405180910390fd5b600160009054906101000a900473ffffffffffffffffffffffffffffffffffffffff1673ffffffffffffffffffffffffffffffffffffffff1663095ea7b330856040518363ffffffff1660e01b81526004016109e9929190612335565b6020604051808303816000875af1158015610a08573d6000803e3d6000fd5b505050506040513d601f19601f82011682018060405250810190610a2c919061238a565b50600160009054906101000a900473ffffffffffffffffffffffffffffffffffffffff1673ffffffffffffffffffffffffffffffffffffffff166323b872dd3033866040518463ffffffff1660e01b8152600401610a8c939291906123b7565b6020604051808303816000875af1158015610aab573d6000803e3d6000fd5b505050506040513d601f19601f82011682018060405250810190610acf919061238a565b5060008054906101000a900473ffffffffffffffffffffffffffffffffffffffff1673ffffffffffffffffffffffffffffffffffffffff1663095ea7b330600d60003373ffffffffffffffffffffffffffffffffffffffff1673ffffffffffffffffffffffffffffffffffffffff168152602001908152602001600020600701546040518363ffffffff1660e01b8152600401610b6d929190612335565b6020604051808303816000875af1158015610b8c573d6000803e3d6000fd5b505050506040513d601f19601f82011682018060405250810190610bb0919061238a565b5060008054906101000a900473ffffffffffffffffffffffffffffffffffffffff1673ffffffffffffffffffffffffffffffffffffffff166323b872dd3033600d60003373ffffffffffffffffffffffffffffffffffffffff1673ffffffffffffffffffffffffffffffffffffffff168152602001908152602001600020600701546040518463ffffffff1660e01b8152600401610c50939291906123b7565b6020604051808303816000875af1158015610c6f573d6000803e3d6000fd5b505050506040513d601f19601f82011682018060405250810190610c93919061238a565b5082600d60003373ffffffffffffffffffffffffffffffffffffffff1673ffffffffffffffffffffffffffffffffffffffff1681526020019081526020016000206002016000828254610ce69190612151565b925050819055506000600d60003373ffffffffffffffffffffffffffffffffffffffff1673ffffffffffffffffffffffffffffffffffffffff1681526020019081526020016000206003018190555042600d60003373ffffffffffffffffffffffffffffffffffffffff1673ffffffffffffffffffffffffffffffffffffffff168152602001908152602001600020600501819055600d60003373ffffffffffffffffffffffffffffffffffffffff1673ffffffffffffffffffffffffffffffffffffffff168152602001908152602001600020600401819055506000600d60003373ffffffffffffffffffffffffffffffffffffffff1673ffffffffffffffffffffffffffffffffffffffff16815260200190815260200160002060070181905550610e11611bc7565b505050565b600080600d60008473ffffffffffffffffffffffffffffffffffffffff1673ffffffffffffffffffffffffffffffffffffffff1681526020019081526020016000206005015442610e679190612151565b9050600b548110610ef15768056bc75e2d63100000600d60008573ffffffffffffffffffffffffffffffffffffffff1673ffffffffffffffffffffffffffffffffffffffff16815260200190815260200160002060020154670de0b6b3a7640000600654610ed591906123ee565b610edf91906123ee565b610ee9919061245f565b915050610ef7565b60009150505b919050565b60045481565b600160009054906101000a900473ffffffffffffffffffffffffffffffffffffffff1681565b60008054906101000a900473ffffffffffffffffffffffffffffffffffffffff1681565b600c60009054906101000a900460ff1681565b3373ffffffffffffffffffffffffffffffffffffffff16600260009054906101000a900473ffffffffffffffffffffffffffffffffffffffff1673ffffffffffffffffffffffffffffffffffffffff1614610fef576040517f08c379a0000000000000000000000000000000000000000000000000000000008152600401610fe69061223d565b60405180910390fd5b8060068190555050565b600a5481565b60095481565b60085481565b60035481565b600d6020528060005260406000206000915090508060000154908060010154908060020154908060030154908060040154908060050154908060060154908060070154905088565b3373ffffffffffffffffffffffffffffffffffffffff16600260009054906101000a900473ffffffffffffffffffffffffffffffffffffffff1673ffffffffffffffffffffffffffffffffffffffff16146110e9576040517f08c379a00000000000000000000000000000000000000000000000000000000081526004016110e09061223d565b60405180910390fd5b60001515600c60009054906101000a900460ff1615151461113f576040517f08c379a0000000000000000000000000000000000000000000000000000000008152600401611136906124dc565b60405180910390fd5b600160009054906101000a900473ffffffffffffffffffffffffffffffffffffffff1673ffffffffffffffffffffffffffffffffffffffff166323b872dd3330846040518463ffffffff1660e01b815260040161119e939291906123b7565b6020604051808303816000875af11580156111bd573d6000803e3d6000fd5b505050506040513d601f19601f820116820180604052508101906111e1919061238a565b50670de0b6b3a76400006111f36116c7565b600a6111ff91906123ee565b611209919061245f565b6003819055506112176116c7565b670de0b6b3a764000060035461122d91906123ee565b611237919061245f565b6004819055506001600c60006101000a81548160ff021916908315150217905550600354600d60003373ffffffffffffffffffffffffffffffffffffffff1673ffffffffffffffffffffffffffffffffffffffff168152602001908152602001600020600001819055506112aa81611bf7565b50565b60008060009054906101000a900473ffffffffffffffffffffffffffffffffffffffff1673ffffffffffffffffffffffffffffffffffffffff166370a08231306040518263ffffffff1660e01b81526004016113099190611fb8565b602060405180830381865afa158015611326573d6000803e3d6000fd5b505050506040513d601f19601f8201168201806040525081019061134a9190612511565b905090565b600260009054906101000a900473ffffffffffffffffffffffffffffffffffffffff1681565b600b5481565b3373ffffffffffffffffffffffffffffffffffffffff16600260009054906101000a900473ffffffffffffffffffffffffffffffffffffffff1673ffffffffffffffffffffffffffffffffffffffff161461140b576040517f08c379a00000000000000000000000000000000000000000000000000000000081526004016114029061223d565b60405180910390fd5b81600781905550806008819055505050565b60075481565b3373ffffffffffffffffffffffffffffffffffffffff16600260009054906101000a900473ffffffffffffffffffffffffffffffffffffffff1673ffffffffffffffffffffffffffffffffffffffff16146114b3576040517f08c379a00000000000000000000000000000000000000000000000000000000081526004016114aa9061223d565b60405180910390fd5b80600b8190555050565b60011515600c60009054906101000a900460ff16151514611513576040517f08c379a000000000000000000000000000000000000000000000000000000000815260040161150a90612070565b60405180910390fd5b8060095411158015611527575080600a5410155b611566576040517f08c379a000000000000000000000000000000000000000000000000000000000815260040161155d906125b0565b60405180910390fd5b600160009054906101000a900473ffffffffffffffffffffffffffffffffffffffff1673ffffffffffffffffffffffffffffffffffffffff166323b872dd3330846040518463ffffffff1660e01b81526004016115c5939291906123b7565b6020604051808303816000875af11580156115e4573d6000803e3d6000fd5b505050506040513d601f19601f82011682018060405250810190611608919061238a565b5060006002600454670de0b6b3a764000084611624919061245f565b61162e91906123ee565b611638919061245f565b9050806003600082825461164c91906125d0565b9250508190555080600d60003373ffffffffffffffffffffffffffffffffffffffff1673ffffffffffffffffffffffffffffffffffffffff16815260200190815260200160002060000160008282546116a591906125d0565b925050819055506116b582611bf7565b6116bd611bc7565b5050565b60065481565b6000600160009054906101000a900473ffffffffffffffffffffffffffffffffffffffff1673ffffffffffffffffffffffffffffffffffffffff166370a08231306040518263ffffffff1660e01b81526004016117249190611fb8565b602060405180830381865afa158015611741573d6000803e3d6000fd5b505050506040513d601f19601f820116820180604052508101906117659190612511565b905090565b3373ffffffffffffffffffffffffffffffffffffffff16600260009054906101000a900473ffffffffffffffffffffffffffffffffffffffff1673ffffffffffffffffffffffffffffffffffffffff16146117fa576040517f08c379a00000000000000000000000000000000000000000000000000000000081526004016117f19061223d565b60405180910390fd5b8160098190555080600a819055505050565b3373ffffffffffffffffffffffffffffffffffffffff16600260009054906101000a900473ffffffffffffffffffffffffffffffffffffffff1673ffffffffffffffffffffffffffffffffffffffff161461189c576040517f08c379a00000000000000000000000000000000000000000000000000000000081526004016118939061223d565b60405180910390fd5b80600260006101000a81548173ffffffffffffffffffffffffffffffffffffffff021916908373ffffffffffffffffffffffffffffffffffffffff16021790555050565b6000610e10600b546118f2919061245f565b6064600d60008573ffffffffffffffffffffffffffffffffffffffff1673ffffffffffffffffffffffffffffffffffffffff1681526020019081526020016000206000015460055461194491906123ee565b61194e919061245f565b61195891906123ee565b905080600d60008473ffffffffffffffffffffffffffffffffffffffff1673ffffffffffffffffffffffffffffffffffffffff16815260200190815260200160002060060160008282546119ac91906125d0565b9250508190555080600d60008473ffffffffffffffffffffffffffffffffffffffff1673ffffffffffffffffffffffffffffffffffffffff1681526020019081526020016000206007016000828254611a0591906125d0565b925050819055505050565b6000611a1b82610e16565b905060006002600454670de0b6b3a764000084611a38919061245f565b611a4291906123ee565b611a4c919061245f565b90508060036000828254611a6091906125d0565b9250508190555080600d60003373ffffffffffffffffffffffffffffffffffffffff1673ffffffffffffffffffffffffffffffffffffffff1681526020019081526020016000206000016000828254611ab991906125d0565b9250508190555081600d60003373ffffffffffffffffffffffffffffffffffffffff1673ffffffffffffffffffffffffffffffffffffffff1681526020019081526020016000206002016000828254611b1291906125d0565b925050819055506001600d60003373ffffffffffffffffffffffffffffffffffffffff1673ffffffffffffffffffffffffffffffffffffffff1681526020019081526020016000206003016000828254611b6c91906125d0565b9250508190555042600d60003373ffffffffffffffffffffffffffffffffffffffff1673ffffffffffffffffffffffffffffffffffffffff16815260200190815260200160002060050181905550611bc2611bc7565b505050565b611bcf6116c7565b670de0b6b3a7640000600354611be591906123ee565b611bef919061245f565b600481905550565b80600d60003373ffffffffffffffffffffffffffffffffffffffff1673ffffffffffffffffffffffffffffffffffffffff1681526020019081526020016000206001016000828254611c4991906125d0565b9250508190555080600d60003373ffffffffffffffffffffffffffffffffffffffff1673ffffffffffffffffffffffffffffffffffffffff1681526020019081526020016000206002016000828254611ca291906125d0565b9250508190555042600d60003373ffffffffffffffffffffffffffffffffffffffff1673ffffffffffffffffffffffffffffffffffffffff1681526020019081526020016000206005018190555050565b600080fd5b600073ffffffffffffffffffffffffffffffffffffffff82169050919050565b6000611d2382611cf8565b9050919050565b6000611d3582611d18565b9050919050565b611d4581611d2a565b8114611d5057600080fd5b50565b600081359050611d6281611d3c565b92915050565b600060208284031215611d7e57611d7d611cf3565b5b6000611d8c84828501611d53565b91505092915050565b6000819050919050565b611da881611d95565b8114611db357600080fd5b50565b600081359050611dc581611d9f565b92915050565b600060208284031215611de157611de0611cf3565b5b6000611def84828501611db6565b91505092915050565b611e0181611d18565b8114611e0c57600080fd5b50565b600081359050611e1e81611df8565b92915050565b600060208284031215611e3a57611e39611cf3565b5b6000611e4884828501611e0f565b91505092915050565b611e5a81611d95565b82525050565b6000602082019050611e756000830184611e51565b92915050565b6000819050919050565b6000611ea0611e9b611e9684611cf8565b611e7b565b611cf8565b9050919050565b6000611eb282611e85565b9050919050565b6000611ec482611ea7565b9050919050565b611ed481611eb9565b82525050565b6000602082019050611eef6000830184611ecb565b92915050565b60008115159050919050565b611f0a81611ef5565b82525050565b6000602082019050611f256000830184611f01565b92915050565b600061010082019050611f41600083018b611e51565b611f4e602083018a611e51565b611f5b6040830189611e51565b611f686060830188611e51565b611f756080830187611e51565b611f8260a0830186611e51565b611f8f60c0830185611e51565b611f9c60e0830184611e51565b9998505050505050505050565b611fb281611d18565b82525050565b6000602082019050611fcd6000830184611fa9565b92915050565b60008060408385031215611fea57611fe9611cf3565b5b6000611ff885828601611db6565b925050602061200985828601611db6565b9150509250929050565b600082825260208201905092915050565b7f4d696e657220686173206e6f74206c61756e6368656420796574000000000000600082015250565b600061205a601a83612013565b915061206582612024565b602082019050919050565b600060208201905081810360008301526120898161204d565b9050919050565b7f4e6f206465706f73697420686173206265656e206d616465206279207468697360008201527f2075736572000000000000000000000000000000000000000000000000000000602082015250565b60006120ec602583612013565b91506120f782612090565b604082019050919050565b6000602082019050818103600083015261211b816120df565b9050919050565b7f4e487b7100000000000000000000000000000000000000000000000000000000600052601160045260246000fd5b600061215c82611d95565b915061216783611d95565b925082820390508181111561217f5761217e612122565b5b92915050565b7f596f752063616e6e6f74206d696e65206e6f7700000000000000000000000000600082015250565b60006121bb601383612013565b91506121c682612185565b602082019050919050565b600060208201905081810360008301526121ea816121ae565b9050919050565b7f4e6f7420617574686f72697a6564000000000000000000000000000000000000600082015250565b6000612227600e83612013565b9150612232826121f1565b602082019050919050565b600060208201905081810360008301526122568161221a565b9050919050565b7f5769746864726177616c20526571756972656d656e7473206e6f74206d657400600082015250565b6000612293601f83612013565b915061229e8261225d565b602082019050919050565b600060208201905081810360008301526122c281612286565b9050919050565b7f416d6f756e7420657863656564732070726f666974206561726e656400000000600082015250565b60006122ff601c83612013565b915061230a826122c9565b602082019050919050565b6000602082019050818103600083015261232e816122f2565b9050919050565b600060408201905061234a6000830185611fa9565b6123576020830184611e51565b9392505050565b61236781611ef5565b811461237257600080fd5b50565b6000815190506123848161235e565b92915050565b6000602082840312156123a05761239f611cf3565b5b60006123ae84828501612375565b91505092915050565b60006060820190506123cc6000830186611fa9565b6123d96020830185611fa9565b6123e66040830184611e51565b949350505050565b60006123f982611d95565b915061240483611d95565b925082820261241281611d95565b9150828204841483151761242957612428612122565b5b5092915050565b7f4e487b7100000000000000000000000000000000000000000000000000000000600052601260045260246000fd5b600061246a82611d95565b915061247583611d95565b92508261248557612484612430565b5b828204905092915050565b7f4d696e657220616c7265616479206c61756e6368656400000000000000000000600082015250565b60006124c6601683612013565b91506124d182612490565b602082019050919050565b600060208201905081810360008301526124f5816124b9565b9050919050565b60008151905061250b81611d9f565b92915050565b60006020828403121561252757612526611cf3565b5b6000612535848285016124fc565b91505092915050565b7f4465706f73697420616d6f756e74206f7574206f66207370656369666965642060008201527f72616e6765000000000000000000000000000000000000000000000000000000602082015250565b600061259a602583612013565b91506125a58261253e565b604082019050919050565b600060208201905081810360008301526125c98161258d565b9050919050565b60006125db82611d95565b91506125e683611d95565b92508282019050808211156125fe576125fd612122565b5b9291505056fea264697066735822122074e84e815307ac0efb41baa3c90baa50003fb4d8490d69e74d13f2446fe7612164736f6c63430008110033",
  "linkReferences": {},
  "deployedLinkReferences": {}
}